:100000000C9462000C948A000C948A000C948A0070
:100010000C948A000C948A000C948A000C948A0038
:100020000C948A000C948A000C948A000C948A0028
:100030000C948A000C948A000C948A000C948A0018
:100040000C945D0A0C948A000C942B0A0C94050AFB
:100050000C948A000C948A000C948A000C948A00F8
:100060000C94A70A0C948A000000000024002700CA
:100070002A0000000000250028002B0000000000DE
:1000800023002600290004040404040404040202DA
:100090000202020203030303030301020408102007
:1000A0004080010204081020010204081020000012
:1000B0000008000201000003040700000000000027
:1000C0000000C60B11241FBECFEFD8E0DEBFCDBFAE
:1000D00011E0A0E0B1E0ECE8FCE202C005900D9276
:1000E000AC3CB107D9F723E0ACECB1E001C01D9204
:1000F000A63AB207E1F710E0C2E6D0E004C02197CB
:10010000FE010E942F16C136D107C9F70E94480C84
:100110000C9444160C940000089508958091740383
:1001200090917503891B990B0895DC01ED91FC9169
:100130000190F081E02D0994AF92BF92CF92DF92AF
:10014000EF92FF920F931F93CF93DF936C017B018C
:100150008B01040F151FEB015E01AE18BF08C0171D
:10016000D10759F06991D601ED91FC910190F08190
:10017000E02DC6010995892B79F7C501DF91CF9153
:100180001F910F91FF90EF90DF90CF90BF90AF90B5
:100190000895FC01538D448D252F30E0842F90E08D
:1001A000821B930B541710F0CF9608950197089572
:1001B000FC01918D828D981761F0A28DAE0FBF2F3B
:1001C000B11D5D968C91928D9F5F9F73928F90E091
:1001D00008958FEF9FEF0895FC01918D828D981700
:1001E00031F0828DE80FF11D858D90E008958FEF3D
:1001F0009FEF0895FC01918D228D892F90E0805C06
:100200009F4F821B91098F739927089581ED92E08A
:100210000E94FA0021E0892B09F420E0822F089542
:1002200080E090E0892B29F00E94060181110C9456
:1002300000000895FC01A48DA80FB92FB11DA35A89
:10024000BF4F2C91848D90E001968F739927848FF6
:10025000A689B7892C93A089B1898C918370806419
:100260008C93938D848D981306C00288F389E02DBA
:1002700080818F7D80830895EF92FF920F931F936B
:10028000CF93DF93EC0181E0888F9B8D8C8D981349
:100290001AC0E889F989808185FF15C09FB7F89455
:1002A000EE89FF896083E889F989808183708064A1
:1002B00080839FBF81E090E0DF91CF911F910F91EC
:1002C000FF90EF900895F62E0B8D10E00F5F1F4FFB
:1002D0000F731127E02E8C8D8E110CC00FB607FC0A
:1002E000FACFE889F989808185FFF5CFCE010E9498
:1002F0001A01F1CFEB8DEC0FFD2FF11DE35AFF4FEB
:10030000F0829FB7F8940B8FEA89FB898081806225
:10031000CFCFCF93DF93EC01888D8823B9F0AA89E2
:10032000BB89E889F9898C9185FD03C0808186FDB0
:100330000DC00FB607FCF7CF8C9185FFF2CF8081FF
:1003400085FFEDCFCE010E941A01E9CFDF91CF9159
:100350000895833081F028F4813099F08230A9F03B
:1003600008958730A9F08830C9F08430B1F48091C5
:1003700080008F7D03C0809180008F778093800004
:10038000089584B58F7784BD089584B58F7DFBCFA4
:100390008091B0008F778093B00008958091B00075
:1003A0008F7DF9CFCF93DF93282F30E0F901E2550D
:1003B000FF4F8491F901E656FF4FD491F901EA57B6
:1003C000FF4FC491CC23A1F081110E94A901EC2F11
:1003D000F0E0EE0FFF1FE458FF4FA591B491EC91B0
:1003E000ED2381E090E009F480E0DF91CF91089562
:1003F00080E090E0FACF1F93CF93DF93282F30E077
:10040000F901E255FF4F8491F901E656FF4FD4916F
:10041000F901EA57FF4FC491CC23A9F0162F81119F
:100420000E94A901EC2FF0E0EE0FFF1FEE58FF4FE6
:10043000A591B4918FB7F894EC91111108C0D095A3
:10044000DE23DC938FBFDF91CF911F910895DE2BC8
:10045000F8CFCF93DF93C2E8D3E060E088850E94B5
:10046000FB0160E089850E94FB0161E088850E94B4
:10047000FB0161E08985DF91CF910C94FB01CF9363
:10048000DF93C2E8D3E061E088850E94FB0161E070
:1004900089850E94FB0160E089850E94FB0160E084
:1004A0008885DF91CF910C94FB01CF93DF9390E08F
:1004B000FC01E656FF4F24918A579F4FFC0184911F
:1004C0008823D1F090E0880F991FFC01E859FF4F75
:1004D000A591B491FC01EE58FF4FC591D4916111E3
:1004E0000EC09FB7F8948C91E22FE0958E238C93E9
:1004F0002881E223E8839FBFDF91CF9108958FB7D2
:10050000F894EC91E22BEC938FBFF6CF0F931F93EF
:10051000CF93DF93D82FC8E060E080918A030E94D8
:10052000FB010D2F0D2E000C110B61E0D0FF60E0E0
:1005300080918B030E94FB0115950795D02F61E0F8
:1005400080918A030E94FB01C15031F760E08091E5
:100550008A030E94FB0161E080918B030E94FB01F2
:1005600061E080918A030E94FB0160E080918B032F
:100570000E94550283EC90E00197F1F780918B0384
:100580000E94D2018C0181110AC061E080918B032D
:100590000E94550260E080918B030E94FB01C3EC36
:1005A000D0E0CE010197F1F761E080918B030E94CA
:1005B00055022197F1F7C8019927DF91CF911F913B
:1005C0000F9108950F931F93CF93DF9300D000D026
:1005D000CDB7DEB730918903A2E8B3E08E010F5F9B
:1005E0001F4FAC014C5F5F4FFC012191CF012D9358
:1005F000BF0161507109FB012081230FF801219394
:100600008F018417950781F70E943F0280E40E94C2
:1006100086020E9429020E943F02809187030E9465
:10062000860289810E9486028A810E9486028B81CD
:100630000E9486028C810E9486020E9429020E94EA
:100640003F02809188030E9486020F900F900F90C6
:100650000F90DF91CF911F910F910C9429020F936E
:100660001F93CF93DF93182FC2E8D3E0E82FF0E079
:10067000EE57FC4F10820F810E943F0284E40E94DB
:1006800086020E9429020E943F02812F806C0E94F4
:100690008602802F0E9486020E9429020E943F0249
:1006A0008E810E948602DF91CF911F910F910C9451
:1006B00029023FB7F8948091110290911202A09103
:1006C0001302B091140226B5A89B05C02F3F19F064
:1006D0000196A11DB11D3FBFBA2FA92F982F8827C2
:1006E000BC01CD01620F711D811D911D42E0660F9D
:1006F000771F881F991F4A95D1F708958F929F926F
:10070000AF92BF92CF92DF92EF92FF926B017C018A
:100710000E9459034B015C01C114D104E104F104AE
:10072000B9F00E945903681979098A099B09683E42
:1007300073408105910580F321E0C21AD108E108D8
:10074000F10888EE880E83E0981EA11CB11CE4CF4E
:10075000FF90EF90DF90CF90BF90AF909F908F90E1
:10076000089508952091ED01260F3327331F21327C
:100770003105ECF42091A902FC0190E080E02430E6
:1007800069F082E00895A091ED012191AC014353FD
:100790005E4FA40FB52FB11D2C930196861798F3C9
:1007A0008091ED01680F6093ED0180E0089581E094
:1007B00008951092A90281E08093A802109283020A
:1007C00061E082E10E94FB0161E083E10E94FB01A4
:1007D000E9EBF0E080818E7F808380818D7F808354
:1007E00088E48093B80085E48093BC000895CF939B
:1007F000DF9391E09093CC018823B9F0C091B800C9
:10080000D091BA008091BC008A7B8093BC0060E0EC
:1008100082E10E94FB0160E083E10E94FB010E94F3
:10082000D903D093BA00C093B800DF91CF91089557
:100830008F929F92AF92BF92CF92DF92EF92FF92F0
:100840000F931F93CF93DF93D0917203D13208F0AF
:10085000D7C0182FC091D0020E9459036B017C01B0
:100860008091A90281116BC082E08093A90210934C
:10087000A8028FEF8093A7021092A602D093A50240
:10088000A0EBB2E0E5E8F2E080E0D81391C010926E
:10089000840280918402CC0FC82BC0938402809183
:1008A0008302813009F088C0109283020E945903AC
:1008B0006B017C01809184028093BB008091AB022C
:1008C0009091AC02A091AD02B091AE02892B8A2B1F
:1008D0008B2BA1F00E9459030091AB021091AC0246
:1008E0002091AD023091AE026C197D098E099F09ED
:1008F000061717072807390708F442C08091BC0083
:1009000083FDD8CF85EC8093BC000E9459036B0116
:100910007C018091A902823009F450C08091A70225
:100920008F3F09F46FC08091A702803209F46CC038
:100930008091A702803309F469C084E026C08091C9
:10094000AB029091AC02A091AD02B091AE02892BA6
:100950008A2B8B2B09F484CF0E9459038090AB0221
:100960009090AC02A090AD02B090AE026C197D09DF
:100970008E099F0986169706A806B90608F070CF5B
:100980008091AA020E94F70385E0109273031092EF
:1009900072031092AF02DF91CF911F910F91FF90E0
:1009A000EF90DF90CF90BF90AF909F908F90089581
:1009B0009D9191938F5F69CF85EEA5CF8091AB021A
:1009C0009091AC02A091AD02B091AE02892B8A2B1E
:1009D0008B2B09F49ECF0E9459030091AB0210911A
:1009E000AC022091AD023091AE026C197D098E09E6
:1009F0009F09061717072807390708F08ACFC0CFC5
:100A000081E0C3CF80E0C1CF82E0BFCF83E0BDCF24
:100A10000895E091750380917403E81730F4F0E0D5
:100A2000EB5EFD4F808190E008958FEF9FEF08957A
:100A300090917503809174032FEF3FEF981748F45E
:100A4000E92FF0E0EB5EFD4F208130E09F5F909357
:100A50007503C9010895CF92DF92EF92FF920F9331
:100A60001F93CF93DF937C01CB018A012091AF02CA
:100A7000222389F0EB016B01C40ED51ECC15DD05D8
:100A800069F06991D701ED91FC910190F081E02D21
:100A9000C7010995F3CF642F0E94B203C801DF910B
:100AA000CF911F910F91FF90EF90DF90CF9008951D
:100AB000CF93DF931F92CDB7DEB769832091AF024A
:100AC0002223F9F020917203203258F021E030E027
:100AD000FC013383228390E080E00F90DF91CF917F
:100AE000089580917303E82FF0E0E055FD4F998160
:100AF00090838F5F809373038093720381E090E013
:100B0000ECCF61E0CE0101960E94B203F7CFFC0169
:100B1000248131E03093AF022093D002109273030E
:100B2000109272038385682B86E793E00E94580534
:100B300081E00C94180490E080E0089581110C94F9
:100B400059032FB7F89460917F02709180028091D1
:100B50008102909182022FBF0895CF92DF92EF928F
:100B6000FF921F93CF93DF93EC018C85882379F05C
:100B70008F850E949E05C880D980EA80FB806C1911
:100B80007D098E099F09688779878A879B871C85DD
:100B9000112369F1688579858A859B85CC80DD8004
:100BA000EE80FF806C157D058E059F05D0F12D85AB
:100BB000211126C0A70196010E940216C701B601A5
:100BC0000E94E615C880D980EA80FB80DC01CB0159
:100BD0008C0D9D1DAE1DBF1D88839983AA83BB8389
:100BE000E889F989309709F0099581E08E87812F8E
:100BF000DF91CF911F91FF90EF90DF90CF900895FC
:100C00008F850E949E05C880D980EA80FB806C1980
:100C10007D098E099F09688779878A879B871C864B
:100C2000DFCF10E0E4CFEF92FF921F93CF93DF93DB
:100C30002FB7F89480917F0290918002A091810259
:100C4000B09182022FBF4091A1035091A203609105
:100C5000A3037091A40384179507A607B70740F470
:100C60001092A1031092A2031092A3031092A40366
:100C70002091A503211118C04091A1035091A20316
:100C80006091A3037091A403841B950BA60BB70B73
:100C9000803D9740A105B10538F481E0DF91CF9107
:100CA0001F91FF90EF9008951092A5032FB7F8942D
:100CB00080917F0290918002A0918102B091820286
:100CC0002FBF8093A1039093A203A093A303B0939B
:100CD000A40310929C0310929B0310929A0310920B
:100CE00099031092980361E080919E030E94FB019A
:100CF0006AEF70E080E090E00E947E0361E0809106
:100D00009E030E94550260E080919E030E94FB01B9
:100D100064E170E080E090E00E947E03F89461E07E
:100D200080919E030E94FB018BE990E00197F1F70F
:100D300060E080919E030E94550210E081E0C0E0D7
:100D4000D0E0E82EF12C80919E030E94D2018E15F6
:100D50009F0519F4DF5FDF3FB1F780919E030E948A
:100D6000D201DF3FC1F0C43098F0C0FD11C0E12FC7
:100D7000E695E695E695F0E0E856FC4F9081990FF0
:100D800090832091A0032D1710F4916090831F5F32
:100D9000CF5FC535A9F678941832B8F040919C031E
:100DA0002091980380919903280F3327331F809156
:100DB0009A03280F311D80919B03820F932F911D61
:100DC00099274817190609F468CF80E067CFCF92BA
:100DD000DF92EF92FF92CF93DF93C82F0E9413060A
:100DE000882341F080919F038B3049F018F08551A2
:100DF000823038F160E070E080EC9FE71BC06091CA
:100E00009A0370E090E080E00E94BD14CC2391F042
:100E100020E030E040E151E40E94741520E030E031
:100E200040EA50E40E941C1420E030E040E052E42C
:100E30000E94AB13DF91CF91FF90EF90DF90CF90A6
:100E40000895D0919A036D2F6F7770E090E080E065
:100E50000E94BF1420E030E040E853E40E94741583
:100E60006B017C0160919B0370E090E080E00E9448
:100E7000BF14A70196010E94AB1320E030E040E2CE
:100E800051E40E941C14D7FFC1CF9058BFCF0F93DD
:100E90001F93CF938C01C62F0E9487056C2F64602F
:100EA000C8010E9487056C2F6B7FC8010E948705CF
:100EB00083EC90E00197F1F7CF911F910F91089586
:100EC0000F931F93CF93DF938C01D62FC42F607F96
:100ED000642B0E94470780E1D89FB00111246C2B3E
:100EE000C801DF91CF911F910F910C944707CF93C9
:100EF000DF93CDB7DEB728970FB6F894DEBF0FBEED
:100F0000CDBF98E0E0E0F1E0DE01119601900D9296
:100F10009A95E1F790919403961708F46FEF262FB6
:100F200030E0220F331F41E050E04C0F5D1F240FD3
:100F3000351FF9016081680F606840E08CE893E03C
:100F400028960FB6F894DEBF0FBECDBFDF91CF91CC
:100F50000C94600741E00E94600781E090E00895F2
:100F60007F928F929F92AF92BF92CF92DF92EF9239
:100F7000FF920F931F93CF93DF9300D000D0CDB794
:100F8000DEB7CDB6DEB6E62EF12C9701295F3F4FD6
:100F9000F7013896ADB7BEB7AE1BBF0B0FB6F894CE
:100FA000BEBF0FBEADBF0DB71EB70F5F1F4F11966F
:100FB0001C921197F801118212821382782F1596D4
:100FC000FC0181918D938E2F871B8617D0F36C5F68
:100FD000862F90E02817390734F0800F911FDC012D
:100FE0001C926F5FF5CF712CB4E0EB0EF11C4A013F
:100FF000550FAA08BB08E72DF0E0EE16FF06A4F097
:10100000E00FF11F838192812181308139832A830E
:101010009B838C83CE0101960E94E202C501B4013C
:101020000E947E037394E7CF0FB6F894DEBE0FBE26
:10103000CDBE0F900F900F900F90DF91CF911F9129
:101040000F91FF90EF90DF90CF90BF90AF909F9067
:101050008F907F900895FB0101900020E9F7319770
:10106000AF01461B570BDC01ED91FC910280F3812F
:10107000E02D09946115710511F00C942B0890E096
:1010800080E008958F929F92AF92BF92EF92FF926D
:101090000F931F93CF93DF93CDB7DEB7A1970FB612
:1010A000F894DEBF0FBECDBF7C01FA01CB0119A2BF
:1010B000223008F42AE08E010F5D1F4F822E912C02
:1010C000B12CA12CBF01A50194010E940216F901C7
:1010D000CA016A30ECF4605DD8016E938D01232B58
:1010E000242B252B79F7BD01C7010E943A08A19650
:1010F0000FB6F894DEBF0FBECDBFDF91CF911F9129
:101100000F91FF90EF90BF90AF909F908F900895B8
:10111000695CE2CFCF92DF92EF92FF920F931F9321
:10112000CF93DF936B01072E000CEE08FF0877FFCB
:101130001BC0EC016DE20E9495008C0144275527ED
:10114000BA014C195D096E097F092AE0CE010E949F
:101150004208800F911FDF91CF911F910F91FF9057
:10116000EF90DF90CF9008952AE0B701A601DF91BC
:10117000CF911F910F91FF90EF90DF90CF900C9443
:101180004208CF93C82F8A3028F460E381ED92E0C3
:101190000E943C014C2F50E070E060E02AE081EDBD
:1011A00092E0CF910C944208CF93C82F8A3028F454
:1011B00060E38CE893E00E94AA074C2F50E070E0B7
:1011C00060E02AE08CE893E0CF910C9442082F92E3
:1011D0003F924F925F926F927F928F929F92AF92C7
:1011E000BF92CF92DF92EF92FF921F93CF93DF9344
:1011F000EC016A017B01722EAB019601CB01B601B5
:101200000E94E11566E671E0811126C04601570192
:10121000E894B7F82FEF3FEF4FE75FE7C501B40160
:101220000E94E11581110CC02FEF3FEF4FE75FE700
:10123000C501B4010E9417146AE671E0181664F043
:101240002FEF3FEF4FE75FE4C701B6010E946F1534
:101250001816B4F46EE671E0CE01DF91CF911F91C4
:10126000FF90EF90DF90CF90BF90AF909F908F90C6
:101270007F906F905F904F903F902F900C942B0831
:101280002FEF3FEF4FE75FECC701B6010E94171445
:1012900087FDE0CF20E030E0A901C701B6010E9440
:1012A0001714312C212C87FF09C06DE2CE010E945A
:1012B00095001C01F7FAF094F7F8F09410E060E064
:1012C00070E080E09FE3711641F020E030E040E202
:1012D00051E40E941C141F5FF6CFA70196010E94E3
:1012E000AB132B013C010E948E144B015C012AE0E0
:1012F000BC01A401CE010E9442087C01E20CF31C57
:101300001123C1F1C501B4010E94BD149B01AC01C0
:10131000C301B2010E94AA134B015C016EE2CE012F
:101320000E949500E80EF91E115020F120E030E0F7
:1013300040E251E4C501B4010E9474152B013C0147
:101340000E948E144B01B12CA12C2AE0B501A401FE
:10135000CE010E944208E80EF91EC501B4010E94A8
:10136000BD149B01AC01C301B2010E94AA134B0141
:101370005C01DACFC701DF91CF911F91FF90EF9011
:10138000DF90CF90BF90AF909F908F907F906F90A5
:101390005F904F903F902F90089585ED8093BC0013
:1013A0008091AB029091AC02A091AD02B091AE02DF
:1013B0000796A11DB11D23E0B695A7959795879532
:1013C0002A95D1F72091BC0024FD03C01092A902F8
:1013D00008954091AB025091AC026091AD027091C2
:1013E000AE02452B462B472B69F30097A105B105AB
:1013F00041F025E32A95F1F700000197A109B10911
:10140000E1CF8091AA020C94F7031F920F920FB6BE
:101410000F9211242F933F934F935F936F937F937A
:101420008F939F93AF93BF93EF93FF9381ED92E0E0
:101430000E941A01FF91EF91BF91AF919F918F91FF
:101440007F916F915F914F913F912F910F900FBEC0
:101450000F901F9018951F920F920FB60F921124A4
:101460002F938F939F93EF93FF93E091E102F0917D
:10147000E2028081E091E702F091E80282FD1BC068
:1014800090818091EA028F5F8F732091EB02821727
:1014900041F0E091EA02F0E0EF52FD4F958F80932A
:1014A000EA02FF91EF919F918F912F910F900FBEC4
:1014B0000F901F9018958081F4CF1F920F920FB656
:1014C0000F9211242F933F938F939F93AF93BF93CA
:1014D00080917F0290918002A0918102B09182025E
:1014E0003091100223E0230F2D3758F50196A11DEE
:1014F000B11D2093100280937F0290938002A093ED
:101500008102B09382028091110290911202A09107
:101510001302B09114020196A11DB11D8093110216
:1015200090931202A0931302B0931402BF91AF9153
:101530009F918F913F912F910F900FBE0F901F9011
:10154000189526E8230F0296A11DB11DD2CF1F9238
:101550000F920FB60F9211242F933F934F935F93E7
:101560006F937F938F939F93AF93BF93EF93FF936B
:101570008091B900887F803609F44AC0F0F588323E
:1015800009F4A7C018F5803109F49BC0B8F488238A
:1015900009F4F9C0883009F494C0FF91EF91BF912C
:1015A000AF919F918F917F916F915F914F913F91FB
:1015B0002F910F900FBE0F901F901895883109F44E
:1015C00088C0803251F78093A70214C0803409F498
:1015D0009DC040F48033B9F38833F9F68093A702B5
:1015E00085ECB0C0803509F485C0883509F496C013
:1015F000883499F60E94CD09D0CF883909F48CC07F
:1016000038F5883729F050F4883611F0803729F6FC
:1016100083E08093A90210920F0257C0883809F422
:101620007BC0803919F0803809F0B7CF80910F0264
:10163000803208F071C0E0910F0281E08E0F80933C
:101640000F028091BB00F0E0E151FE4F80833DC06E
:10165000803B39F0E0F4803A09F479C0883A09F027
:101660009CCF84E08093A9021092EE011092ED01CC
:10167000E0916E03F0916F0309958091ED01811166
:101680000FC081E08093ED011092CD0109C0803C34
:1016900009F4A6CF883C09F4A3CF883B09F07DCF9D
:1016A000E091EE0181E08E0F8093EE01F0E0E353D4
:1016B000FE4F80818093BB009091EE018091ED01FF
:1016C00029C0809184028093BB0085EC8093BC008C
:1016D00064CF9091A6028091A502981758F5E091E9
:1016E000A60281E08E0F8093A602F0E0EB57FD4F3B
:1016F0008081E9CFE091A60281E08E0F8093A6025F
:101700008091BB00F0E0EB57FD4F80839091A602E3
:101710008091A5029817C8F285E8D8CFE091A6027B
:1017200081E08E0F8093A6028091BB00F0E0EB5722
:10173000FD4F80838091A80281115CCF81E080936E
:10174000830284EA8093BC001092A90226CF85EC24
:101750008093BC001092A90280910F02803230F475
:10176000E0910F02F0E0E151FE4F108260910F0214
:1017700070E0E0917003F09171038FEE91E00995B4
:1017800010920F020ACF1092A70234CFCF92DF92AD
:10179000EF92FF92CF93DF93E1EDF2E0138212829A
:1017A00088EEC82E83E0D82EE12CF12CC482D5829D
:1017B000E682F7828AE391E09183808385EC90E072
:1017C0009587848784EC90E09787868780EC90E00B
:1017D000918B808B81EC90E0938B828B82EC90E0FC
:1017E000958B848B86EC90E0978B868B118E128E76
:1017F000138E148E1092750310927403109273035B
:10180000109272030E94D9038CE890E090936F03CA
:1018100080936E038DE890E0909371038093700342
:10182000E6E7F3E013821282C482D582E682F78271
:101830008CE491E091838083E8E9F3E082E08683A1
:1018400096E1978396E0908791E09587ECE8F3E046
:10185000138212822EE531E03183208397E2948354
:1018600090E1918782871386C2E8D3E083E088877E
:1018700084E0898761E083E00E94550261E0898508
:10188000DF91CF91FF90EF90DF90CF900C945502B5
:10189000CF93DF93CDB7DEB7C454D1090FB6F89418
:1018A000DEBF0FBECDBF789484B5826084BD84B5A1
:1018B000816084BD85B5826085BD85B5816085BD4B
:1018C00080916E00816080936E0010928100809103
:1018D000810082608093810080918100816080938B
:1018E0008100809180008160809380008091B100B0
:1018F00084608093B1008091B00081608093B000DB
:1019000080917A00846080937A0080917A0082606E
:1019100080937A0080917A00816080937A00809130
:101920007A00806880937A001092C100E091E10211
:10193000F091E20282E08083E091DD02F091DE022C
:101940001082E091DF02F091E0028FEC8083109230
:10195000E902E091E502F091E60286E08083E09101
:10196000E302F091E402808180618083E091E302F0
:10197000F091E402808188608083E091E302F0913D
:10198000E402808180688083E091E302F091E402C8
:1019900080818F7D808360E080919E030E9455024C
:1019A00061E080919E030E94FB011092A1031092BE
:1019B000A2031092A3031092A40310927503109235
:1019C000740310927303109272030E94D9038CE87F
:1019D00090E090936F0380936E038DE890E0909376
:1019E000710380937003109291038091960382306B
:1019F00018F098E0909391038093940362E370E071
:101A000080E090E00E947E03609197038CE893E071
:101A10000E94870568EE73E080E090E00E947E03FC
:101A200060E38CE893E00E9447070BE416E4C801EA
:101A30000197F1F760E38CE893E00E944707C80143
:101A40000197F1F760E38CE893E00E94470783E594
:101A500092E00197F1F760E28CE893E00E9447077B
:101A600060919103606240E08CE893E00E9460071F
:101A700084E08093920340E06CE08CE893E00E9465
:101A8000600740E061E08CE893E00E9460070BE3B0
:101A90001FE1C8010197F1F782E08093930340E0D2
:101AA00066E08CE893E00E94600740E062E08CE82A
:101AB00093E00E946007C8010197F1F788E08093E6
:101AC000970360E08CE893E00E94870580E00E9425
:101AD0002F0381E00E942F0382E00E942F0383E006
:101AE0000E942F03109282031092830310928403AA
:101AF0001092850380E48093860380EC80938703B3
:101B00008FE88093880382E893E00E94E20262E714
:101B100071E081ED92E00E942B0861EC71E081EDB3
:101B200092E00E942B0861E08DE00E94550261E086
:101B30008CE00E94550261E08BE00E9455029E01FC
:101B40002A5E3F4F3CAB2BABBE01695D7F4F78AF48
:101B50006FAB1E017EE1270E311CCE018F969EAB2E
:101B60008DAB80917702811140C010926502109276
:101B70006602109267021092680210926D02109233
:101B80006E0210926F021092700210927202109206
:101B9000730210927402109276021092750268EE2F
:101BA00073E080E090E06093690270936A02809332
:101BB0006B0290936C0211E01093710280E00E941E
:101BC0009E0560936502709366028093670290930E
:101BD000680210926D0210926E0210926F021092C3
:101BE0007002109272021093770285E692E00E94D2
:101BF000AD05882309F476C181E480937C0080914F
:101C00007A00806480937A0080917A0086FDFCCF10
:101C10000091780080917900182F1093640200934E
:101C200063020E941306882349F080919F038B3042
:101C300051F020F08551823008F40EC260E070E06F
:101C400080EC9FE707C06091980370E090E080E02F
:101C50000E94BD140E948E14B62E60935A0280E03A
:101C60000E94E7066B017C01C0925B02D0925C028D
:101C7000E0925D02F0925E026B2D70E090E080E0F9
:101C80000E94BD1469AF7AAF8BAF9CAF81E00E9418
:101C9000E7064B015C01AC019B010E947415219683
:101CA0006CAF7DAF8EAF9FAF219729AD3AAD4BADF5
:101CB0005CADCA01B9010E94741525966CAF7DAF69
:101CC0008EAF9FAF259721E133E243E050E4C50199
:101CD000B4010E94741529E134E849E252E40E94FB
:101CE000AA132B013C0126E13BE442E251E469AD39
:101CF0007AAD8BAD9CAD0E9474159B01AC01C30104
:101D0000B2010E94AB132B013C0128E436E246E607
:101D10005EEBC501B4010E94741529AD3AAD4BAD1F
:101D20005CAD0E9474159B01AC01C301B2010E941D
:101D3000AB132B013C0120EE3FE040EE5BEB219624
:101D40006CAD7DAD8EAD9FAD21970E9474159B014A
:101D5000AC01C301B2010E94AB132B013C0128EF7F
:101D600037E840E65DEB25966CAD7DAD8EAD9FAD61
:101D700025970E9474159B01AC01C301B2010E941A
:101D8000AB132B013C012CEA3DE041EA5AE32196DA
:101D90006CAD7DAD8EAD9FAD21970E94741529ADC0
:101DA0003AAD4BAD5CAD0E9474159B01AC01C30113
:101DB000B2010E94AB132B013C0128EC3FE84FE538
:101DC0005AE3C501B4010E94741525962CAD3DADB2
:101DD0004EAD5FAD25970E9474159B01AC01C30108
:101DE000B2010E94AB134B015C0121EF3BE845E0DF
:101DF00056EB21966CAD7DAD8EAD9FAD21970E94C7
:101E0000741525962CAD3DAD4EAD5FAD25970E9466
:101E100074159B01AC01C501B4010E94AB1320E015
:101E200030E040E052E40E94AA1320E030E040EAB3
:101E300050E40E94741520E030E040E151E40E943B
:101E40001C1460935F027093600280936102909310
:101E5000620281E00D3271E0170708F480E08093A0
:101E6000590220E030E048EB51E4C701B6010E947E
:101E70001714881F8827881F80935802BB24B394A7
:101E800020E030E040EC51E4C701B6010E946F153C
:101E900018160CF0B12CB092570261E00D321140CF
:101EA00008F460E08DE00E94FB0120E030E048EBA8
:101EB00051E4C701B6010E94171461E087FF60E09A
:101EC0008CE00E94FB0120E030E040EC51E4C701CF
:101ED000B6010E946F1561E018160CF060E08BE00F
:101EE0000E94FB0188E0E8E0F1E0DE0156960190F7
:101EF0000D928A95E1F788E0E0E1F1E0DE011E96BF
:101F000001900D928A95E1F740E060E48CE893E05F
:101F10000E9460078E01025F1F4FD8016D918D01F5
:101F20008CE893E00E94AA07EBA9FCA90E171F07F3
:101F3000A1F740E068E48CE893E00E9460078E011E
:101F40000A5E1F4FD8016D918D018CE893E00E94CD
:101F5000AA0702151305B1F785E0E8E1F1E0D10128
:101F600001900D928A95E1F78DE0EDE1F1E0DE015F
:101F7000119601900D928A95E1F780914F0281119F
:101F800040C010923D0210923E0210923F02109209
:101F9000400210924502109246021092470210929F
:101FA000480210924A0210924B0210924C02109278
:101FB0004E0210924D0268EE73E080E090E0609374
:101FC000410270934202809343029093440211E0D5
:101FD0001093490280E00E949E0560933D02709339
:101FE0003E0280933F02909340021092450210926D
:101FF0004602109247021092480210924A02109331
:102000004F028DE392E00E94AD05882309F464C37A
:1020100001E00093AF0288E68093D0021092730330
:102020001092720360E086E793E00E94580581E019
:102030000E941804182F882381F110923502809194
:102040003502882309F481C344EF51E06DE0CE01ED
:1020500001960E94B0073FC26091980370E090E043
:1020600080E00E94BD1420E030E040E853E40E948C
:1020700074156B017C016091990370E090E080E041
:102080000E94BF14A70196010E94AB1320E030E02C
:1020900040E251E40E941C14DDCD009335020E9401
:1020A00059036B017C018091A902811164C081E018
:1020B0008093A9028093A8029FEF9093A7021092A9
:1020C000A60296E09093A5028093840280918402F8
:1020D000806D8093840280918302813009F009C36E
:1020E000109283020E9459036B017C01809184024B
:1020F0008093BB008091AB029091AC02A091AD02A5
:10210000B091AE02892B8A2B8B2BA1F00E94590330
:102110008090AB029090AC02A090AD02B090AE0265
:102120006C197D098E099F0986169706A806B906BF
:1021300008F442C08091BC0083FDD8CF85EC809329
:10214000BC000E9459036B017C018091A90281307F
:1021500009F4D1C28091A602873008F0EEC28091C6
:10216000A602A5E8B2E0E5E1F2E0181749F19D9179
:1021700091931F5FFACF8091AB029091AC02A09136
:10218000AD02B091AE02892B8A2B8B2B09F48BCF39
:102190000E9459038090AB029090AC02A090AD02D7
:1021A000B090AE026C197D098E099F0986169706BC
:1021B000A806B90608F077CF8091AA020E94F7031B
:1021C0001092750310937403173008F438CF86E724
:1021D00093E00E941805082F982F929597701AE0A7
:1021E000802F8F70919F800D11248093360286E797
:1021F00093E00E941805982F92959F708F70919F81
:10220000800D11248093370286E793E00E94180521
:10221000982F929593708F70919F800D11248093C9
:10222000380286E793E00E941805982F92959F70D8
:102230008F70919F800D11248093390286E793E07F
:102240000E941805982F92959F708F70919F800D16
:10225000112480933A0286E793E00E941805982F94
:1022600092959F708F70919F800D112480933B02F7
:1022700086E793E00E941805982F92959F708F70C3
:10228000825E919F800D112480933C0207FDD7CE82
:1022900080E88093890382E893E00E94E202209123
:1022A0003802243608F017C140913702443608F04E
:1022B00012C12A3008F043C21FA73AE0822F632FD1
:1022C0000E94F615E92F98AB842F0E94F61589AB72
:1022D0009AABAFA5B0E0A65DBE4F2C912BA7F0E066
:1022E000E65DFE4F20812CA7E82FF0E0E65DFE4F73
:1022F00080818DA7E92FF0E0E65DFE4F80818EA7FB
:102300001BA21CA21DA21EA222E833E0DE019396AE
:10231000CE0187968E01055D1F4F51E0F801419176
:102320008F01F90161919F0146135C93FC01419378
:10233000CF0111966DA97EA90617170779F7D12C41
:10234000F12CE12C01E010E0C8010E2C01C0880F37
:102350000A94EAF7D82AFE01B796CE0183965C016B
:10236000D5018D915D018111D08231962FA938ADB3
:10237000A216B306A9F7CE0187960E94E20263E295
:1023800070E080E090E00E947E033FEFE31AF30AE2
:1023900065E0E616F104C1F6D12CC12C01E010E095
:1023A000C8010C2C01C0880F0A94EAF7806C7FEFFB
:1023B000C71AD70A98010C2C01C0220F0A94EAF719
:1023C000822B8095FE01B796DE0193967D01D701A1
:1023D0009D917D01911180833196AE14BF04B9F7B0
:1023E000CE0187960E94E20263E270E080E090E016
:1023F0000E947E03B6E0CB16D10491F6D12CC12CFD
:1024000080ECB82E01E010E0C8010C2C01C0880F50
:102410000A94EAF7B82ADE019796FE01B3968B2D4F
:102420008095919191118C931196EE15FF05C9F746
:10243000CE0187960E94E20263E270E080E090E0C5
:102440000E947E03EFEFCE1ADE0AF6E0CF16D1042B
:10245000D9F6DE019796FE01B396819181111C9207
:102460001196EE15FF05C9F710E000E0FE01B796E2
:102470009E01255D3F4FAE014D5D5F4FDA018D91AD
:10248000AD01882399F0D9018C9190E0002E02C013
:10249000959587950A94E2F781709927002E01C0DF
:1024A000880F0A94EAF79081892B80832F5F3F4F32
:1024B0003196E416F50611F7CE0187960E94E202E6
:1024C00063E270E080E090E00E947E030F5F1F4FA8
:1024D0000730110559F660E080E00E9477074091CF
:1024E0005B0250915C0260915D0270915E0222E09D
:1024F0008CE893E00E94E70860E084E00E947707A0
:1025000060E08CE893E00E94AA0765EC71E08CE83B
:1025100093E00E942B08409163025091640270E0A6
:1025200060E02AE08CE893E00E94420861E08CE8D9
:1025300093E00E94AA0765EC71E08CE893E00E94AA
:102540002B0860E08BE00E947707809138020E94A0
:10255000D4086AE38CE893E00E94AA0780913702CE
:102560000E94D40861E080E00E94770740915A02FF
:1025700050E070E060E02AE08CE893E00E944208BE
:1025800064EC71E08CE893E00E942B0880913A02A1
:102590000E94D4086FE28CE893E00E94AA07809121
:1025A0003B020E94D4086FE28CE893E00E94AA07E5
:1025B00060913C026E51770B8CE893E00E948A0890
:1025C000809138020E94C10867EC71E081ED92E0D1
:1025D0000E943A08809137020E94C10867EC71E0BE
:1025E00081ED92E00E943A08809136020E94C10873
:1025F00069EC71E081ED92E00E943A0840915B0243
:1026000050915C0260915D0270915E0222E081ED6A
:1026100092E00E94E70869EC71E081ED92E00E948F
:102620003A086091580270E081ED92E00E948A08B9
:1026300069EC71E081ED92E00E943A0860915702E6
:1026400070E081ED92E00E948A0869EC71E081ED12
:1026500092E00E943A08409163025091640270E057
:1026600060E02AE081ED92E00E94420869EC71E0AE
:1026700081ED92E00E943A086091590270E081ED8C
:1026800092E00E948A0869EC71E081ED92E00E947C
:102690003A0840915A0250E070E060E02AE081ED93
:1026A00092E00E94420869EC71E081ED92E00E94A4
:1026B0003A0840915F02509160026091610270910E
:1026C000620222E081ED92E00E94E70861EC71E095
:1026D00081ED92E00E942B0880E090E0892B09F4C4
:1026E00040CA0E940601882309F437CA0E940000EC
:1026F00030CA85EE24CD8091AB029091AC02A091BE
:10270000AD02B091AE02892B8A2B8B2B09F41DCD23
:102710000E9459038090AB029090AC02A090AD0251
:10272000B090AE026C197D098E099F098616970636
:10273000A806B90608F009CD3FCD87E012CD822F5B
:10274000612F0E94F6158FA7B8CD4CE251E065E0ED
:10275000C1017FCC5058BB27AA270E94C2130C94FA
:1027600035150E94271538F00E942E1520F039F4F7
:102770009F3F19F426F40C9424150EF4E095E7FB22
:102780000C941E15E92F0E94461558F3BA176207DC
:1027900073078407950720F079F4A6F50C94681563
:1027A0000EF4E0950B2EBA2FA02D0B01B90190016C
:1027B0000C01CA01A0011124FF27591B99F0593FB0
:1027C00050F4503E68F11A16F040A22F232F342FF8
:1027D0004427585FF3CF469537952795A795F04046
:1027E0005395C9F77EF41F16BA0B620B730B840B5B
:1027F000BAF09150A1F0FF0FBB1F661F771F881F13
:10280000C2F70EC0BA0F621F731F841F48F487956A
:1028100077956795B795F7959E3F08F0B0CF93955C
:10282000880F08F09927EE0F9795879508950E94D5
:10283000FA1408F481E008950E9430140C943515C0
:102840000E942E1558F00E94271540F029F45F3F92
:1028500029F00C941E1551110C9469150C94241533
:102860000E94461568F39923B1F3552391F3951B04
:10287000550BBB27AA2762177307840738F09F5FA1
:102880005F4F220F331F441FAA1FA9F335D00E2E0E
:102890003AF0E0E832D091505040E695001CCAF77B
:1028A0002BD0FE2F29D0660F771F881FBB1F26173E
:1028B00037074807AB07B0E809F0BB0B802DBF0115
:1028C000FF2793585F4F3AF09E3F510578F00C94E4
:1028D0001E150C9469155F3FE4F3983ED4F386957A
:1028E00077956795B795F7959F5FC9F7880F911D05
:1028F0009695879597F90895E1E0660F771F881FF1
:10290000BB1F621773078407BA0720F0621B730BA3
:10291000840BBA0BEE1F88F7E09508950E944E15C0
:1029200088F09F5798F0B92F9927B751B0F0E1F090
:10293000660F771F881F991F1AF0BA95C9F714C040
:10294000B13091F00E946815B1E008950C946815BB
:10295000672F782F8827B85F39F0B93FCCF3869579
:1029600077956795B395D9F73EF4909580957095D6
:1029700061957F4F8F4F9F4F0895E89409C097FB53
:102980003EF490958095709561957F4F8F4F9F4F46
:102990009923A9F0F92F96E9BB279395F69587958A
:1029A00077956795B795F111F8CFFAF4BB0F11F44D
:1029B00060FF1BC06F5F7F4F8F4F9F4F16C08823F4
:1029C00011F096E911C0772321F09EE8872F762F2A
:1029D00005C0662371F096E8862F70E060E02AF06B
:1029E0009A95660F771F881FDAF7880F9695879557
:1029F00097F90895990F0008550FAA0BE0E8FEEF2C
:102A000016161706E807F907C0F012161306E407B2
:102A1000F50798F0621B730B840B950B39F40A26AB
:102A200061F0232B242B252B21F408950A2609F489
:102A3000A140A6958FEF811D811D089597F99F678D
:102A400080E870E060E008959FEF80EC0895002436
:102A50000A941616170618060906089500240A9403
:102A600012161306140605060895092E0394000C89
:102A700011F4882352F0BB0F40F4BF2B11F460FF18
:102A800004C06F5F7F4F8F4F9F4F089557FD905841
:102A9000440F551F59F05F3F71F04795880F97FB22
:102AA000991F61F09F3F79F08795089512161306DC
:102AB0001406551FF2CF4695F1DF08C0161617060B
:102AC0001806991FF1CF8695710561050894089540
:102AD000E894BB2766277727CB0197F908950E94D2
:102AE000FA1408F48FEF08950E9487150C94351599
:102AF0000E94271538F00E942E1520F0952311F022
:102B00000C941E150C94241511240C9469150E9424
:102B1000461570F3959FC1F3950F50E0551F629FC6
:102B2000F001729FBB27F00DB11D639FAA27F00D26
:102B3000B11DAA1F649F6627B00DA11D661F829F4D
:102B40002227B00DA11D621F739FB00DA11D621F32
:102B5000839FA00D611D221F749F3327A00D611D4F
:102B6000231F849F600D211D822F762F6A2F112431
:102B70009F5750409AF0F1F088234AF0EE0FFF1F64
:102B8000BB1F661F771F881F91505040A9F79E3FBB
:102B9000510580F00C941E150C9469155F3FE4F309
:102BA000983ED4F3869577956795B795F795E79511
:102BB0009F5FC1F7FE2B880F911D9695879597F91A
:102BC00008950E94FA14880B990B0895DB018F93E6
:102BD0009F930E942416BF91AF91A29F800D911DDB
:102BE000A39F900DB29F900D11240895991B79E039
:102BF00004C0991F961708F0961B881F7A95C9F78D
:102C000080950895A1E21A2EAA1BBB1BFD010DC0E1
:102C1000AA1FBB1FEE1FFF1FA217B307E407F5078C
:102C200020F0A21BB30BE40BF50B661F771F881F68
:102C3000991F1A9469F760957095809590959B01FE
:102C4000AC01BD01CF0108950E943516A59F900DDE
:102C5000B49F900DA49F800D911D11240895EE0F37
:102C6000FF1F0590F491E02D0994A29FB001B39F3E
:102C7000C001A39F700D811D1124911DB29F700D85
:0C2C8000811D1124911D0895F894FFCFD0
:102C8C000000400014005400000E11110A0E040044
:102C9C000C12120C000000007950505C506D7978C9
:102CAC00007876790078065454793F065B4F666D50
:102CBC007D077F6F0040000000003C019C00C900B4
:102CCC008901FA00D800EC000000000058052B0523
:102CDC009B0508058E001805090500000000AA07D1
:102CEC009C009B05B1036E616E00696E66006F7689
:102CFC0066004C4142454C2C2054696D652C204D8E
:102D0C00696E7574652C2054656D702C20746F6F12
:102D1C00436F6C642C20746F6F486F742C204C695B
:102D2C006768742C20746F6F4461726B2C20766C06
:102D3C006167612C20696E646578207465706C61C4
:0C2D4C00000D0A002520003A002C0000B9
:00000001FF
